{
  "contractName": "MyShop",
  "abi": [
    {
      "inputs": [],
      "stateMutability": "nonpayable",
      "type": "constructor"
    },
    {
      "anonymous": false,
      "inputs": [
        {
          "indexed": false,
          "internalType": "string",
          "name": "_name",
          "type": "string"
        },
        {
          "indexed": false,
          "internalType": "string",
          "name": "_email",
          "type": "string"
        },
        {
          "indexed": false,
          "internalType": "string",
          "name": "_shipAddress",
          "type": "string"
        }
      ],
      "name": "NewBuyer",
      "type": "event"
    },
    {
      "anonymous": false,
      "inputs": [
        {
          "indexed": false,
          "internalType": "uint256",
          "name": "_itemID",
          "type": "uint256"
        },
        {
          "indexed": false,
          "internalType": "string",
          "name": "_itemName",
          "type": "string"
        },
        {
          "indexed": false,
          "internalType": "string",
          "name": "_description",
          "type": "string"
        },
        {
          "indexed": false,
          "internalType": "uint256",
          "name": "_inventory",
          "type": "uint256"
        },
        {
          "indexed": false,
          "internalType": "uint256",
          "name": "_price",
          "type": "uint256"
        }
      ],
      "name": "NewItem",
      "type": "event"
    },
    {
      "anonymous": false,
      "inputs": [
        {
          "indexed": false,
          "internalType": "uint256",
          "name": "_orderID",
          "type": "uint256"
        },
        {
          "indexed": false,
          "internalType": "uint256",
          "name": "itemID",
          "type": "uint256"
        },
        {
          "indexed": false,
          "internalType": "uint256",
          "name": "_quantity",
          "type": "uint256"
        },
        {
          "indexed": false,
          "internalType": "address",
          "name": "_from",
          "type": "address"
        }
      ],
      "name": "NewOrder",
      "type": "event"
    },
    {
      "stateMutability": "nonpayable",
      "type": "fallback"
    },
    {
      "inputs": [
        {
          "internalType": "address",
          "name": "",
          "type": "address"
        }
      ],
      "name": "buyers",
      "outputs": [
        {
          "internalType": "string",
          "name": "name",
          "type": "string"
        },
        {
          "internalType": "string",
          "name": "email",
          "type": "string"
        },
        {
          "internalType": "string",
          "name": "shipAddress",
          "type": "string"
        }
      ],
      "stateMutability": "view",
      "type": "function",
      "constant": true
    },
    {
      "inputs": [
        {
          "internalType": "uint256",
          "name": "",
          "type": "uint256"
        }
      ],
      "name": "items",
      "outputs": [
        {
          "internalType": "uint256",
          "name": "itemID",
          "type": "uint256"
        },
        {
          "internalType": "string",
          "name": "itemName",
          "type": "string"
        },
        {
          "internalType": "string",
          "name": "description",
          "type": "string"
        },
        {
          "internalType": "uint256",
          "name": "inventory",
          "type": "uint256"
        },
        {
          "internalType": "uint256",
          "name": "price",
          "type": "uint256"
        }
      ],
      "stateMutability": "view",
      "type": "function",
      "constant": true
    },
    {
      "inputs": [],
      "name": "numBuyers",
      "outputs": [
        {
          "internalType": "uint256",
          "name": "",
          "type": "uint256"
        }
      ],
      "stateMutability": "view",
      "type": "function",
      "constant": true
    },
    {
      "inputs": [],
      "name": "numOrders",
      "outputs": [
        {
          "internalType": "uint256",
          "name": "",
          "type": "uint256"
        }
      ],
      "stateMutability": "view",
      "type": "function",
      "constant": true
    },
    {
      "inputs": [],
      "name": "numProducts",
      "outputs": [
        {
          "internalType": "uint256",
          "name": "",
          "type": "uint256"
        }
      ],
      "stateMutability": "view",
      "type": "function",
      "constant": true
    },
    {
      "inputs": [
        {
          "internalType": "uint256",
          "name": "",
          "type": "uint256"
        }
      ],
      "name": "orders",
      "outputs": [
        {
          "internalType": "uint256",
          "name": "orderID",
          "type": "uint256"
        },
        {
          "internalType": "string",
          "name": "email",
          "type": "string"
        },
        {
          "internalType": "string",
          "name": "shipAddress",
          "type": "string"
        }
      ],
      "stateMutability": "view",
      "type": "function",
      "constant": true
    },
    {
      "inputs": [],
      "name": "owner",
      "outputs": [
        {
          "internalType": "address",
          "name": "",
          "type": "address"
        }
      ],
      "stateMutability": "view",
      "type": "function",
      "constant": true
    },
    {
      "inputs": [],
      "name": "paused",
      "outputs": [
        {
          "internalType": "bool",
          "name": "",
          "type": "bool"
        }
      ],
      "stateMutability": "view",
      "type": "function",
      "constant": true
    },
    {
      "inputs": [],
      "name": "getBalance",
      "outputs": [
        {
          "internalType": "uint256",
          "name": "",
          "type": "uint256"
        }
      ],
      "stateMutability": "view",
      "type": "function",
      "constant": true
    },
    {
      "inputs": [
        {
          "internalType": "uint256",
          "name": "_itemID",
          "type": "uint256"
        },
        {
          "internalType": "string",
          "name": "_itemName",
          "type": "string"
        },
        {
          "internalType": "string",
          "name": "_description",
          "type": "string"
        },
        {
          "internalType": "uint256",
          "name": "_inventory",
          "type": "uint256"
        },
        {
          "internalType": "uint256",
          "name": "_price",
          "type": "uint256"
        }
      ],
      "name": "addItem",
      "outputs": [],
      "stateMutability": "nonpayable",
      "type": "function"
    },
    {
      "inputs": [
        {
          "internalType": "uint256",
          "name": "_itemID",
          "type": "uint256"
        },
        {
          "internalType": "string",
          "name": "_itemName",
          "type": "string"
        },
        {
          "internalType": "string",
          "name": "_description",
          "type": "string"
        },
        {
          "internalType": "uint256",
          "name": "_inventory",
          "type": "uint256"
        },
        {
          "internalType": "uint256",
          "name": "_price",
          "type": "uint256"
        }
      ],
      "name": "updateItem",
      "outputs": [],
      "stateMutability": "nonpayable",
      "type": "function"
    },
    {
      "inputs": [
        {
          "internalType": "address payable",
          "name": "_to",
          "type": "address"
        }
      ],
      "name": "withdrawFunds",
      "outputs": [],
      "stateMutability": "payable",
      "type": "function",
      "payable": true
    },
    {
      "inputs": [
        {
          "internalType": "bool",
          "name": "_paused",
          "type": "bool"
        }
      ],
      "name": "setPaused",
      "outputs": [],
      "stateMutability": "nonpayable",
      "type": "function"
    },
    {
      "inputs": [
        {
          "internalType": "address payable",
          "name": "_to",
          "type": "address"
        }
      ],
      "name": "destroyContract",
      "outputs": [],
      "stateMutability": "nonpayable",
      "type": "function"
    },
    {
      "inputs": [
        {
          "internalType": "string",
          "name": "_name",
          "type": "string"
        },
        {
          "internalType": "string",
          "name": "_email",
          "type": "string"
        },
        {
          "internalType": "string",
          "name": "_shipAddress",
          "type": "string"
        }
      ],
      "name": "registerBuyer",
      "outputs": [],
      "stateMutability": "nonpayable",
      "type": "function"
    },
    {
      "inputs": [],
      "name": "listItems",
      "outputs": [
        {
          "internalType": "uint256[]",
          "name": "",
          "type": "uint256[]"
        }
      ],
      "stateMutability": "view",
      "type": "function",
      "constant": true
    },
    {
      "inputs": [
        {
          "internalType": "uint256",
          "name": "_itemID",
          "type": "uint256"
        },
        {
          "internalType": "uint256",
          "name": "_quantity",
          "type": "uint256"
        }
      ],
      "name": "BuyItem",
      "outputs": [],
      "stateMutability": "payable",
      "type": "function",
      "payable": true
    }
  ],
  "bytecode": "0x608060405234801561001057600080fd5b50336000806101000a81548173ffffffffffffffffffffffffffffffffffffffff021916908373ffffffffffffffffffffffffffffffffffffffff160217905550612459806100606000396000f3fe6080604052600436106101025760003560e01c806368742da611610095578063a85c38ef11610064578063a85c38ef14610313578063ac964f2114610352578063bfb231d21461037d578063c2e673ec146103be578063e1debaca146103da57610103565b806368742da6146102645780638da5cb5b1461028057806397a993aa146102ab5780639978d487146102ea57610103565b8063355eefc8116100d1578063355eefc8146101b85780633e919980146101e357806345d537881461020e5780635c975abb1461023957610103565b8063016a37381461011257806312065fe01461013b5780631408910a1461016657806316c38b3c1461018f57610103565b5b34801561010f57600080fd5b50005b34801561011e57600080fd5b506101396004803603610134919081019061187a565b610403565b005b34801561014757600080fd5b506101506104ab565b60405161015d91906120c4565b60405180910390f35b34801561017257600080fd5b5061018d600480360361018891908101906118cc565b6104ca565b005b34801561019b57600080fd5b506101b660048036036101b191908101906118a3565b610691565b005b3480156101c457600080fd5b506101cd61073d565b6040516101da9190611eaf565b60405180910390f35b3480156101ef57600080fd5b506101f8610795565b60405161020591906120c4565b60405180910390f35b34801561021a57600080fd5b5061022361079b565b60405161023091906120c4565b60405180910390f35b34801561024557600080fd5b5061024e6107a1565b60405161025b9190611ed1565b60405180910390f35b61027e6004803603610279919081019061187a565b6107b4565b005b34801561028c57600080fd5b506102956108a4565b6040516102a29190611e94565b60405180910390f35b3480156102b757600080fd5b506102d260048036036102cd9190810190611851565b6108c9565b6040516102e193929190611f38565b60405180910390f35b3480156102f657600080fd5b50610311600480360361030c919081019061198c565b610abb565b005b34801561031f57600080fd5b5061033a60048036036103359190810190611963565b610c8b565b60405161034993929190612140565b60405180910390f35b34801561035e57600080fd5b50610367610de5565b60405161037491906120c4565b60405180910390f35b34801561038957600080fd5b506103a4600480360361039f9190810190611963565b610deb565b6040516103b5959493929190612185565b60405180910390f35b6103d860048036036103d39190810190611a33565b610f51565b005b3480156103e657600080fd5b5061040160048036036103fc919081019061198c565b611415565b005b6000809054906101000a900473ffffffffffffffffffffffffffffffffffffffff1673ffffffffffffffffffffffffffffffffffffffff163373ffffffffffffffffffffffffffffffffffffffff1614610492576040517f08c379a0000000000000000000000000000000000000000000000000000000008152600401610489906120a4565b60405180910390fd5b8073ffffffffffffffffffffffffffffffffffffffff16ff5b60003073ffffffffffffffffffffffffffffffffffffffff1631905090565b60001515600060149054906101000a900460ff16151514610520576040517f08c379a000000000000000000000000000000000000000000000000000000000815260040161051790612084565b60405180910390fd5b6000809054906101000a900473ffffffffffffffffffffffffffffffffffffffff1673ffffffffffffffffffffffffffffffffffffffff163373ffffffffffffffffffffffffffffffffffffffff1614156105b0576040517f08c379a00000000000000000000000000000000000000000000000000000000081526004016105a790611fc4565b60405180910390fd5b6000600160003373ffffffffffffffffffffffffffffffffffffffff1673ffffffffffffffffffffffffffffffffffffffff16815260200190815260200160002090508381600001908051906020019061060b92919061167d565b508281600101908051906020019061062492919061167d565b508181600201908051906020019061063d92919061167d565b506007600081548092919060010191905055507f624f4304fbf516a2b116d55552f131a80ee97de17d19c4f9896100a1a0efca6e84848460405161068393929190611eec565b60405180910390a150505050565b6000809054906101000a900473ffffffffffffffffffffffffffffffffffffffff1673ffffffffffffffffffffffffffffffffffffffff163373ffffffffffffffffffffffffffffffffffffffff1614610720576040517f08c379a0000000000000000000000000000000000000000000000000000000008152600401610717906120a4565b60405180910390fd5b80600060146101000a81548160ff02191690831515021790555050565b6060600480548060200260200160405190810160405280929190818152602001828054801561078b57602002820191906000526020600020905b815481526020019060010190808311610777575b5050505050905090565b60075481565b60085481565b600060149054906101000a900460ff1681565b6000809054906101000a900473ffffffffffffffffffffffffffffffffffffffff1673ffffffffffffffffffffffffffffffffffffffff163373ffffffffffffffffffffffffffffffffffffffff1614610843576040517f08c379a000000000000000000000000000000000000000000000000000000000815260040161083a906120a4565b60405180910390fd5b8073ffffffffffffffffffffffffffffffffffffffff166108fc3073ffffffffffffffffffffffffffffffffffffffff16319081150290604051600060405180830381858888f193505050501580156108a0573d6000803e3d6000fd5b5050565b6000809054906101000a900473ffffffffffffffffffffffffffffffffffffffff1681565b6001602052806000526040600020600091509050806000018054600181600116156101000203166002900480601f0160208091040260200160405190810160405280929190818152602001828054600181600116156101000203166002900480156109755780601f1061094a57610100808354040283529160200191610975565b820191906000526020600020905b81548152906001019060200180831161095857829003601f168201915b505050505090806001018054600181600116156101000203166002900480601f016020809104026020016040519081016040528092919081815260200182805460018160011615610100020316600290048015610a135780601f106109e857610100808354040283529160200191610a13565b820191906000526020600020905b8154815290600101906020018083116109f657829003601f168201915b505050505090806002018054600181600116156101000203166002900480601f016020809104026020016040519081016040528092919081815260200182805460018160011615610100020316600290048015610ab15780601f10610a8657610100808354040283529160200191610ab1565b820191906000526020600020905b815481529060010190602001808311610a9457829003601f168201915b5050505050905083565b6000809054906101000a900473ffffffffffffffffffffffffffffffffffffffff1673ffffffffffffffffffffffffffffffffffffffff163373ffffffffffffffffffffffffffffffffffffffff1614610b4a576040517f08c379a0000000000000000000000000000000000000000000000000000000008152600401610b41906120a4565b60405180910390fd5b60001515600060149054906101000a900460ff16151514610ba0576040517f08c379a0000000000000000000000000000000000000000000000000000000008152600401610b9790612084565b60405180910390fd5b60026000868152602001908152602001600020600001548514610bf8576040517f08c379a0000000000000000000000000000000000000000000000000000000008152600401610bef90612064565b60405180910390fd5b83600260008781526020019081526020016000206001019080519060200190610c2292919061167d565b5082600260008781526020019081526020016000206002019080519060200190610c4d92919061167d565b508160026000878152602001908152602001600020600301819055508060026000878152602001908152602001600020600401819055505050505050565b6003602052806000526040600020600091509050806000015490806001018054600181600116156101000203166002900480601f016020809104026020016040519081016040528092919081815260200182805460018160011615610100020316600290048015610d3d5780601f10610d1257610100808354040283529160200191610d3d565b820191906000526020600020905b815481529060010190602001808311610d2057829003601f168201915b505050505090806002018054600181600116156101000203166002900480601f016020809104026020016040519081016040528092919081815260200182805460018160011615610100020316600290048015610ddb5780601f10610db057610100808354040283529160200191610ddb565b820191906000526020600020905b815481529060010190602001808311610dbe57829003601f168201915b5050505050905083565b60065481565b6002602052806000526040600020600091509050806000015490806001018054600181600116156101000203166002900480601f016020809104026020016040519081016040528092919081815260200182805460018160011615610100020316600290048015610e9d5780601f10610e7257610100808354040283529160200191610e9d565b820191906000526020600020905b815481529060010190602001808311610e8057829003601f168201915b505050505090806002018054600181600116156101000203166002900480601f016020809104026020016040519081016040528092919081815260200182805460018160011615610100020316600290048015610f3b5780601f10610f1057610100808354040283529160200191610f3b565b820191906000526020600020905b815481529060010190602001808311610f1e57829003601f168201915b5050505050908060030154908060040154905085565b60001515600060149054906101000a900460ff16151514610fa7576040517f08c379a0000000000000000000000000000000000000000000000000000000008152600401610f9e90612084565b60405180910390fd5b6000809054906101000a900473ffffffffffffffffffffffffffffffffffffffff1673ffffffffffffffffffffffffffffffffffffffff163373ffffffffffffffffffffffffffffffffffffffff161415611037576040517f08c379a000000000000000000000000000000000000000000000000000000000815260040161102e90612024565b60405180910390fd5b6000600260008481526020019081526020016000206003015411611090576040517f08c379a000000000000000000000000000000000000000000000000000000000815260040161108790611f84565b60405180910390fd5b6060600160003373ffffffffffffffffffffffffffffffffffffffff1673ffffffffffffffffffffffffffffffffffffffff1681526020019081526020016000206000018054600181600116156101000203166002900480601f0160208091040260200160405190810160405280929190818152602001828054600181600116156101000203166002900480156111685780601f1061113d57610100808354040283529160200191611168565b820191906000526020600020905b81548152906001019060200180831161114b57829003601f168201915b505050505090506000815114156111b4576040517f08c379a00000000000000000000000000000000000000000000000000000000081526004016111ab90612044565b60405180910390fd5b600082600260008681526020019081526020016000206004015402905080341115611223573373ffffffffffffffffffffffffffffffffffffffff166108fc8234039081150290604051600060405180830381858888f19350505050158015611221573d6000803e3d6000fd5b505b80341015611266576040517f08c379a000000000000000000000000000000000000000000000000000000000815260040161125d90611fa4565b60405180910390fd5b600060036000600160085401815260200190815260200160002090506001600854018160000181905550600160003373ffffffffffffffffffffffffffffffffffffffff1673ffffffffffffffffffffffffffffffffffffffff1681526020019081526020016000206001018160010190805460018160011615610100020316600290046112f59291906116fd565b50600160003373ffffffffffffffffffffffffffffffffffffffff1673ffffffffffffffffffffffffffffffffffffffff16815260200190815260200160002060020181600201908054600181600116156101000203166002900461135b9291906116fd565b50600560016008540190806001815401808255809150506001900390600052602060002001600090919091909150556008600081548092919060010191905055508360026000878152602001908152602001600020600301540360026000878152602001908152602001600020600301819055507fc0515c0f5c01028de590be660f9c27c6be164508c1a41a818bba6b9ad736495160085486863360405161140694939291906121e6565b60405180910390a15050505050565b6000809054906101000a900473ffffffffffffffffffffffffffffffffffffffff1673ffffffffffffffffffffffffffffffffffffffff163373ffffffffffffffffffffffffffffffffffffffff16146114a4576040517f08c379a000000000000000000000000000000000000000000000000000000000815260040161149b906120a4565b60405180910390fd5b60001515600060149054906101000a900460ff161515146114fa576040517f08c379a00000000000000000000000000000000000000000000000000000000081526004016114f190612084565b60405180910390fd5b600085101561153e576040517f08c379a000000000000000000000000000000000000000000000000000000000815260040161153590612004565b60405180910390fd5b6002600086815260200190815260200160002060000154851415611597576040517f08c379a000000000000000000000000000000000000000000000000000000000815260040161158e90611fe4565b60405180910390fd5b6000600260008781526020019081526020016000209050858160000181905550848160010190805190602001906115cf92919061167d565b50838160020190805190602001906115e892919061167d565b5082816003018190555081816004018190555060048690806001815401808255809150506001900390600052602060002001600090919091909150556006600081548092919060010191905055507ffc16ab7f55d729144e6b60dd342572f41e949954c28497802aadee76994f4da6868686868660405161166d9594939291906120df565b60405180910390a1505050505050565b828054600181600116156101000203166002900490600052602060002090601f016020900481019282601f106116be57805160ff19168380011785556116ec565b828001600101855582156116ec579182015b828111156116eb5782518255916020019190600101906116d0565b5b5090506116f99190611784565b5090565b828054600181600116156101000203166002900490600052602060002090601f016020900481019282601f106117365780548555611773565b8280016001018555821561177357600052602060002091601f016020900482015b82811115611772578254825591600101919060010190611757565b5b5090506117809190611784565b5090565b6117a691905b808211156117a257600081600090555060010161178a565b5090565b90565b6000813590506117b8816123c7565b92915050565b6000813590506117cd816123de565b92915050565b6000813590506117e2816123f5565b92915050565b600082601f8301126117f957600080fd5b813561180c61180782612258565b61222b565b9150808252602083016020830185838301111561182857600080fd5b611833838284612374565b50505092915050565b60008135905061184b8161240c565b92915050565b60006020828403121561186357600080fd5b6000611871848285016117a9565b91505092915050565b60006020828403121561188c57600080fd5b600061189a848285016117be565b91505092915050565b6000602082840312156118b557600080fd5b60006118c3848285016117d3565b91505092915050565b6000806000606084860312156118e157600080fd5b600084013567ffffffffffffffff8111156118fb57600080fd5b611907868287016117e8565b935050602084013567ffffffffffffffff81111561192457600080fd5b611930868287016117e8565b925050604084013567ffffffffffffffff81111561194d57600080fd5b611959868287016117e8565b9150509250925092565b60006020828403121561197557600080fd5b60006119838482850161183c565b91505092915050565b600080600080600060a086880312156119a457600080fd5b60006119b28882890161183c565b955050602086013567ffffffffffffffff8111156119cf57600080fd5b6119db888289016117e8565b945050604086013567ffffffffffffffff8111156119f857600080fd5b611a04888289016117e8565b9350506060611a158882890161183c565b9250506080611a268882890161183c565b9150509295509295909350565b60008060408385031215611a4657600080fd5b6000611a548582860161183c565b9250506020611a658582860161183c565b9150509250929050565b6000611a7b8383611e76565b60208301905092915050565b611a908161233e565b82525050565b611a9f816122e4565b82525050565b6000611ab082612294565b611aba81856122c2565b9350611ac583612284565b8060005b83811015611af6578151611add8882611a6f565b9750611ae8836122b5565b925050600181019050611ac9565b5085935050505092915050565b611b0c81612308565b82525050565b6000611b1d826122aa565b611b2781856122d3565b9350611b37818560208601612383565b611b40816123b6565b840191505092915050565b6000611b568261229f565b611b6081856122d3565b9350611b70818560208601612383565b611b79816123b6565b840191505092915050565b6000611b91602c836122d3565b91507f54686973206974656d206973206e6f7420617661696c61626c6520696e20746860008301527f6520696e76656e746f72792e00000000000000000000000000000000000000006020830152604082019050919050565b6000611bf7601e836122d3565b91507f54686520616d6f756e742073656e74206973206e6f7420656e6f7567682e00006000830152602082019050919050565b6000611c376025836122d3565b91507f546865206f776e65722063616e6e6f742072656769737465722061732061206260008301527f757965722e0000000000000000000000000000000000000000000000000000006020830152604082019050919050565b6000611c9d601b836122d3565b91507f546865206974656d20494420616c7265616479206578697374732e00000000006000830152602082019050919050565b6000611cdd601b836122d3565b91507f4974656d2049442063616e6e6f74206265206e656761746976652e00000000006000830152602082019050919050565b6000611d1d601b836122d3565b91507f546865206f776e65722063616e6e6f7420627579206974656d732e00000000006000830152602082019050919050565b6000611d5d601f836122d3565b91507f546869732061646472657373206973206e6f7420726567697374657265642e006000830152602082019050919050565b6000611d9d6018836122d3565b91507f546865206974656d20646f6573206e6f742065786973742e00000000000000006000830152602082019050919050565b6000611ddd6018836122d3565b91507f5468697320636f6e7472616374206973207061757365642e00000000000000006000830152602082019050919050565b6000611e1d6025836122d3565b91507f4f6e6c7920746865206f776e65722063616e2072756e20746869732066756e6360008301527f74696f6e2e0000000000000000000000000000000000000000000000000000006020830152604082019050919050565b611e7f81612334565b82525050565b611e8e81612334565b82525050565b6000602082019050611ea96000830184611a96565b92915050565b60006020820190508181036000830152611ec98184611aa5565b905092915050565b6000602082019050611ee66000830184611b03565b92915050565b60006060820190508181036000830152611f068186611b12565b90508181036020830152611f1a8185611b12565b90508181036040830152611f2e8184611b12565b9050949350505050565b60006060820190508181036000830152611f528186611b4b565b90508181036020830152611f668185611b4b565b90508181036040830152611f7a8184611b4b565b9050949350505050565b60006020820190508181036000830152611f9d81611b84565b9050919050565b60006020820190508181036000830152611fbd81611bea565b9050919050565b60006020820190508181036000830152611fdd81611c2a565b9050919050565b60006020820190508181036000830152611ffd81611c90565b9050919050565b6000602082019050818103600083015261201d81611cd0565b9050919050565b6000602082019050818103600083015261203d81611d10565b9050919050565b6000602082019050818103600083015261205d81611d50565b9050919050565b6000602082019050818103600083015261207d81611d90565b9050919050565b6000602082019050818103600083015261209d81611dd0565b9050919050565b600060208201905081810360008301526120bd81611e10565b9050919050565b60006020820190506120d96000830184611e85565b92915050565b600060a0820190506120f46000830188611e85565b81810360208301526121068187611b12565b9050818103604083015261211a8186611b12565b90506121296060830185611e85565b6121366080830184611e85565b9695505050505050565b60006060820190506121556000830186611e85565b81810360208301526121678185611b4b565b9050818103604083015261217b8184611b4b565b9050949350505050565b600060a08201905061219a6000830188611e85565b81810360208301526121ac8187611b4b565b905081810360408301526121c08186611b4b565b90506121cf6060830185611e85565b6121dc6080830184611e85565b9695505050505050565b60006080820190506121fb6000830187611e85565b6122086020830186611e85565b6122156040830185611e85565b6122226060830184611a87565b95945050505050565b6000604051905081810181811067ffffffffffffffff8211171561224e57600080fd5b8060405250919050565b600067ffffffffffffffff82111561226f57600080fd5b601f19601f8301169050602081019050919050565b6000819050602082019050919050565b600081519050919050565b600081519050919050565b600081519050919050565b6000602082019050919050565b600082825260208201905092915050565b600082825260208201905092915050565b60006122ef82612314565b9050919050565b600061230182612314565b9050919050565b60008115159050919050565b600073ffffffffffffffffffffffffffffffffffffffff82169050919050565b6000819050919050565b600061234982612350565b9050919050565b600061235b82612362565b9050919050565b600061236d82612314565b9050919050565b82818337600083830152505050565b60005b838110156123a1578082015181840152602081019050612386565b838111156123b0576000848401525b50505050565b6000601f19601f8301169050919050565b6123d0816122e4565b81146123db57600080fd5b50565b6123e7816122f6565b81146123f257600080fd5b50565b6123fe81612308565b811461240957600080fd5b50565b61241581612334565b811461242057600080fd5b5056fea264697066735822122013f8f5221cbcbc2bf7745f77d16c72e62eabca79f13816df6c3fdb68e46e2baf64736f6c63430006010033",
  "source": "pragma solidity >=0.6.0 <0.7.0;\npragma experimental ABIEncoderV2;\n\ncontract MyShop {\n\n    address public owner;\n    bool public paused;\n\n    struct Item {\n        uint itemID;\n        string itemName;\n        string description;\n        uint inventory;\n        uint price;\n    }\n    struct Buyer\n    {\n        string name;\n        string email;\n        string shipAddress;\n    }\n    struct Order {\n        uint orderID;\n        string email;\n        string shipAddress;\n    }\n\n    mapping (address => Buyer) public buyers;\n    mapping (uint => Item) public items;\n    mapping (uint => Order) public orders;\n\n    uint[] internal itemsList;\n    uint[] internal ordersList;\n\n    uint public numProducts;\n    uint public numBuyers;\n    uint public numOrders;\n\n    // REMOVE WHEN PRODUCTION\n    uint internal availableFunds;\n\n    event NewItem(uint _itemID, string _itemName, string _description, uint\n    _inventory, uint _price);\n    event NewBuyer(string _name, string _email, string _shipAddress);\n    event NewOrder(uint _orderID, uint itemID, uint _quantity, address _from);\n\n    // First requirements of the contract:\n    // Address of the owner must be specified\n    constructor () public\n    {\n        owner = msg.sender;\n    }\n\n    // Modifier for functions that can only be ran by the owner\n    modifier onlyOwner()\n    {\n        require(msg.sender==owner,\"Only the owner can run this function.\");\n        _;\n    }\n\n    // Modifier for functions that can only be ran if not paused\n    modifier pausable()\n    {\n        require(paused==false,\"This contract is paused.\");\n        _;\n    }\n\n    // REMOVE WHEN PRODUCTION\n    function getBalance() view public returns (uint) {\n        return address(this).balance;\n    }\n\n    // Function to add a new item\n    // Requirements:\n    // msg.sender is the owner\n    // Contract is not paused\n    // itemID cannot be lower than 0\n    function addItem(uint _itemID, string memory _itemName, string memory _description, uint\n    _inventory, uint _price) public onlyOwner pausable\n    {\n        require(_itemID >= 0,\"Item ID cannot be negative.\");\n        require(_itemID != items[_itemID].itemID,\"The item ID already exists.\");\n\n        Item storage newItem = items[_itemID];\n        newItem.itemID = _itemID;\n        newItem.itemName = _itemName;\n        newItem.description = _description;\n        newItem.inventory = _inventory;\n        newItem.price = _price;\n        itemsList.push(_itemID);\n\n        numProducts++;\n\n        emit NewItem (_itemID, _itemName, _description, _inventory, _price);\n    }\n\n    // Function to update an existing item\n    // Requirements:\n    // msg.sender is the owner\n    // Contract is not paused\n    function updateItem(uint _itemID, string memory _itemName, string memory _description,\n    uint _inventory, uint _price) public onlyOwner pausable\n    {\n        require(_itemID == items[_itemID].itemID,\"The item does not exist.\");\n\n        items[_itemID].itemName = _itemName;\n        items[_itemID].description = _description;\n        items[_itemID].inventory = _inventory;\n        items[_itemID].price = _price;\n    }\n\n    // Function to withdraw contract's funds to a specific address\n    // Requirements:\n    // msg.sender is the owner\n    function withdrawFunds(address payable _to) public payable onlyOwner\n    {\n        _to.transfer(address(this).balance);\n    }\n\n    // Function to pause the contract\n    // Requirements:\n    // msg.sender is the owner\n    function setPaused(bool _paused) public onlyOwner\n    {\n        paused = _paused;\n    }\n\n    // Function to destroy the contract and send funds to a specific address\n    // Requirements:\n    // msg.sender is the owner\n    function destroyContract(address payable _to) public onlyOwner\n    {\n        selfdestruct(_to);\n    }\n\n    // Function to register the buyer\n    // Requirements:\n    // Contract is not paused\n    function registerBuyer(string memory _name, string memory _email, string memory\n    _shipAddress) public pausable\n    {\n        require(msg.sender!=owner,\"The owner cannot register as a buyer.\");\n        Buyer storage newBuyer = buyers[msg.sender];\n        newBuyer.name = _name;\n        newBuyer.email = _email;\n        newBuyer.shipAddress = _shipAddress;\n        numBuyers++;\n\n        emit NewBuyer(_name, _email, _shipAddress);\n    }\n\n    // Function to list all registered items\n    function listItems () view public returns (uint[] memory)\n    {\n        return itemsList;\n    }\n\n    // Function to buy an item\n    // Requirements:\n    // msg.sender is registered as a buyer\n    // Contract is not paused\n    function BuyItem(uint _itemID, uint _quantity) public payable pausable\n    {\n        require(msg.sender!=owner,\"The owner cannot buy items.\");\n\n        // Checks if the item is available in the inventory\n        if (items[_itemID].inventory <= 0) {\n            revert(\"This item is not available in the inventory.\");\n        }\n\n        // Checks if the buyer is registered\n        bytes memory tempName = bytes(buyers[msg.sender].name);\n        if (tempName.length == 0) {\n            revert(\"This address is not registered.\");\n        }\n\n            uint amount = items[_itemID].price * _quantity;\n\n            // Checks if the wei sent is more than needed\n            // If yes, refund the extra wei\n            if (msg.value > amount) {\n                    msg.sender.transfer(msg.value - amount);\n            }\n\n            //Checks if the wei sent is less than needed\n            if (msg.value < amount) {\n                revert(\"The amount sent is not enough.\");\n            }\n\n            Order storage newOrder = orders[numOrders+1];\n            newOrder.orderID = numOrders+1;\n            newOrder.email = buyers[msg.sender].email;\n            newOrder.shipAddress = buyers[msg.sender].shipAddress;\n            ordersList.push(numOrders+1);\n            numOrders++;\n\n            items[_itemID].inventory = items[_itemID].inventory - _quantity;\n            emit NewOrder(numOrders, _itemID, _quantity, msg.sender);\n    }\n\n    // Fallback function\n    fallback () external {}\n\n}\n",
  "sourcePath": "/Users/juarezweiss/Desktop/Upwork/MyShop v2/contracts/MyShop.sol",
  "compiler": {
    "name": "solc",
    "version": "0.6.1+commit.e6f7d5a4.Emscripten.clang"
  },
  "schemaVersion": "3.0.23",
  "updatedAt": "2020-04-23T20:09:13.688Z",
  "networkType": "ethereum",
  "devdoc": {
    "methods": {}
  },
  "userdoc": {
    "methods": {}
  }
}